:030000000209658D
:0C096500787FE4F6D8FD75813D0208B6ED
:0D09580064617461206973203A25627800A3
:1008B600E4FF7EC27D01FC1208F87D557F017E387B
:1008C6001204DF7D567F027E381204DF7DAA7F0583
:1008D6007E381204DF7D667F067E381204DF7F01D4
:1008E6007E381209717BFF7A0979588F0B120065E1
:0208F60080FE82
:040971008F828E8360
:03097500E493FF09
:01097800225C
:0604DF008E088F098D0A52
:1004E500E4F50BA907E9C394805004E4F980027987
:1004F500807D807C00E97A002400FFEA3508F50C50
:100505008F0DED7003EC6401601E850D82850C83F3
:10051500E4938D828C83F0050B0DBD00010C050D58
:10052500E50D70DE050C80DAAB09A903E9C39480FB
:10053500E9500A2480FFE433FCAD0780037C00FD0D
:100545008D828C83E50AF08BA6E508FFF5A775AECD
:10055500FFA2AF9209C2AF75C7AA75C755439F01E0
:10056500A20992AFA2AF9209C2AF75C7AA75C755C6
:1005750043A501A20992AF75AF22A2AF9209C2AFFE
:1005850075C7AA75C75543A401A20992AFA903E986
:10059500C394805004E4F9800279807C007D8089D1
:1005A500A68FA7A2AF9209C2AF75C7AA75C7554353
:1005B5009F01A20992AFA2AF9209C2AF75C7AA75F2
:1005C500C75543A501A20992AF75AF21EDF44C6063
:1005D500238D828C83E0F5AEA2AF9209C2AF75C7B9
:1005E500AA75C75543A401A20992AF05A60DBD0082
:1005F500010C80D8A2AF9209C2AF75C7AA75C755BD
:1006050053A5FEA20992AFA2AF9209C2AF75C7AAC0
:0A06150075C755539FFEA20992AF6E
:01061F0022B8
:1008F80053B1BF53B2BF53B17F53B27F75985043C2
:100908008920438780438E1053C4DFAB07AA06A90A
:1009180005A8047F407E427D0F7C0012039BEF04F4
:09092800F404F58DD28ED299225F
:100620008F1F8E1E8D1D8C1C53B1BF53B2BF53B193
:100630007F53B27F75985043878053C4F843C420DA
:10064000AB1FAA1EA91DA81C7F407E427D0F7C0007
:1006500012039BC374FF9FFF74FF9EFEE49DFDE4A5
:100660009CFC780812043E8FC6AB1FAA1EA91DA8C9
:100670001C7F407E427D0F7C0012039BC374FF9F52
:09068000FF8FC543C408D2992282
:070979003098FDAF99C29810
:010980002254
:08098100C2998F993099FD2203
:100689008F258E248D238C2253B1FB53B2FB53B398
:10069900BF53B4BF75F85075C40853C4DFAB25AA5E
:1006A90024A923A8227F407E427D0F7C0012039B50
:1006B900C374FF9FFF74FF9EFEE49DFDE49CFC78DC
:1006C9000812043E8FC6AB25AA24A923A8227F407D
:1006D9007E427D0F7C0012039BC374FF9FFF8FC571
:0406E90043C40822DC
:0709890030F8FDAF9AC2F83F
:010990002244
:08099100C2F98F9A30F9FD2232
:1007D5008F298E288D278C26538EF7438901D28C3D
:1007E500E4FFFEFDFCAB29AA28A927A826C312040D
:1007F5002D6025758A7E758CFF308DFDC28DE529AE
:1008050024FFF529E52834FFF528E52734FFF527EA
:0B081500E52634FFF52680C8C28C22C7
:100820008F2D8E2C8D2B8C2A538EF7438901D28CE1
:10083000E4FFFEFDFCAB2DAA2CA92BA82AC31204B1
:100840002D6025758ACA758CFA308DFDC28DE52D17
:1008500024FFF52DE52C34FFF52CE52B34FFF52B8B
:0B086000E52A34FFF52A80C8C28C2274
:10086B008F318E308D2F8C2E538EEF438910D28E7D
:10087B00E4FFFEFDFCAB31AA30A92FA82EC3120456
:10088B002D6025758BEA758DCB308FFDC28FE531D1
:10089B0024FFF531E53034FFF530E52F34FFF52F2C
:0B08AB00E52E34FFF52E80C8C28E221F
:1006ED008F358E348D338C3253C9BF53C9DF43C917
:1006FD0010D2CAE4FFFEFDFCAB35AA34A933A832F3
:10070D00C312042D602575CC3075CDF830CFFDC2E8
:10071D00CFE53524FFF535E53434FFF534E53334D5
:0E072D00FFF533E53234FFF53280C8C2CA2230
:10073B008F398E388D378C3675C40743C408E4FF68
:10074B00FEFDFCAB39AA38A937A836C312042D60BD
:10075B002875C52C75C6CFE5C430E4FB53C4EFE553
:10076B003924FFF539E53834FFF538E53734FFF533
:0D077B0037E53634FFF53680C553C4F7224C
:100788008F3D8E3C8D3B8C3A75C40743C408E4FF0B
:10079800FEFDFCAB3DAA3CA93BA83AC312042D6060
:1007A8002875C5D875C6FFE5C430E4FB53C4EFE52A
:1007B8003D24FFF53DE53C34FFF53CE53B34FFF5D2
:0D07C8003BE53A34FFF53A80C553C4F722F3
:10035F0075F008758200EF2FFFEE33FECD33CDCC55
:10036F0033CCC58233C5829BED9AEC99E5829840D8
:10037F000CF582EE9BFEED9AFDEC99FC0FD5F0D6B5
:10038F00E4CEFBE4CDFAE4CCF9A88222B800C1B9DF
:10039F000059BA002DEC8BF084CFCECDFCE5F0CB1D
:1003AF00F97818EF2FFFEE33FEED33FDEC33FCEB56
:1003BF0033FB10D703994004EB99FB0FD8E5E4F911
:1003CF00FA227818EF2FFFEE33FEED33FDEC33FCFE
:1003DF00C933C910D7059BE99A4007EC9BFCE99AF2
:1003EF00F90FD8E0E4C9FAE4CCFB2275F010EF2F37
:1003FF00FFEE33FEED33FDCC33CCC833C810D70737
:10040F009BEC9AE899400AED9BFDEC9AFCE899F871
:0E041F000FD5F0DAE4CDFBE4CCFAE4C8F92204
:10042D00EB9FF5F0EA9E42F0E99D42F0E89C45F025
:01043D00229C
:10043E00E8600FECC313FCED13FDEE13FEEF13FF9C
:03044E00D8F122C0
:10000300E517240BF8E60517227808300702780B6A
:10001300E475F0011204A90204512000EB7F2ED2F3
:10002300008018EF540F2490D43440D4FF30040BD5
:10003300EF24BFB41A0050032461FFE518600215D2
:1000430018051BE51B7002051A30070D7808E475C7
:10005300F0011204A9EF0204970209317403D207D5
:100063008003E4C207F5178B088A09890AE4F518A7
:10007300F51AF51BE51860077F2012003E80F57521
:1000830019FFC201C200C202C203C205C206C208EE
:1000930012000CFF700D3007057F0012004FAF1BDD
:1000A300AE1A22B4255FC2D5C20412000CFF24D0BD
:1000B300B40A00501A75F00A781830D50508B6FF4F
:1000C3000106C6A426F620D5047002D20380D924E3
:1000D300CFB41A00EF5004C2E5D20402024FD2019A
:1000E30080C6D20080C0D20280BCD2D580BAD205ED
:1000F30080B47F2012003E2002077401B51800402F
:10010300F1120003FF12003E020077D208D20680EC
:1001130095120003FB120003FA120003F94A4B7015
:100123000679207A037BFF20022EE518602A7E00E1
:100133008E8275830012046A60060EEE651970F0F4
:10014300C2D5EBC0E0EAC0E0E9C0E0EE120296D00F
:10015300E0F9D0E0FAD0E0FB120451FF60AAEBC053
:10016300E0EAC0E0E9C0E012003ED0E02401F9D0AB
:10017300E03400FAD0E0FBE5190460DCD519D9803E
:10018300877BFF7A027992D202809C791080027970
:1001930008C206C2088008D2D5790A8004790AC247
:1001A300D5E519047002F519E4FAFDFEFF12000308
:1001B300FC7B08200113120003FD7B1030000A12A0
:1001C3000003FE120003FF7B20EC3382D592D5504F
:1001D30013C3E43000069FFFE49EFEE42001039D69
:1001E300FDE49CFCE4CBF8C201EC700CCFCECDCC8B
:1001F300E824F8F870F38017C3EF33FFEE33FEED16
:1002030033FDEC33FCEB33FB994002FB0FD8E9EBF6
:10021300300105F8D0E0C448B201C0E00AEC4D4E0D
:100223004F78207B0070C2EAB5190040BCC0E012D1
:100233000298D0F0D0E0200104C4C0E0C4B201C0F1
:10024300F0120027D0F0D5F0EB0200771204B901C9
:100253001453018E5800E54C00E14201924F019A7C
:0F02630044019A4900FA4301A0550184460184E1
:100272004501844703405000E92D00ED2E01102B6B
:1002820000F123010E2003292A00A94800000108D9
:100292003F3F3F00790AA2D5200314300509B91067
:1002A200020404B9080104A2D52006025001042068
:1002B20002689202B518005034C0E07F2030031962
:1002C2007F30A20272067205500F1202EFC202C202
:1002D20006C205C2087F30800F300503E9C0E01274
:1002E200003E300503D0E0F9D0E0B518CC30051758
:1002F2007F30B9100C12003E7F583004077F78809F
:1003020003B9080312003E3002057F2D02003E7F32
:10031200202008F87F2B2006F322920280CF286E3D
:10032200756C6C2900D2011200033001F8C2017809
:100332001830D50108F60200A92D50434958120081
:10034200032403B405004001E490033B9312002F01
:0D035200743A12002FD20375180402018EB8
:10045100BB010689828A83E0225002E722BBFE02A9
:09046100E32289828A83E49322DC
:10046A00BB010CE58229F582E5833AF583E0225047
:10047A0006E92582F8E622BBFE06E92582F8E22291
:0D048A00E58229F582E5833AF583E49322AB
:10049700BB010689828A83F0225002F722BBFE0144
:0204A700F3223E
:1004A900FAE6FB0808E6F925F0F618E6CA3AF62254
:1004B900D083D082F8E4937012740193700DA3A3D2
:1004C90093F8740193F5828883E4737402936860E6
:0604D900EFA3A3A380DFE6
:10093100EFB40A07740D12093C740A309811A89992
:10094100B8130CC2983098FDA899C298B811F63026
:0709510099FDC299F59922FE
:00000001FF
